:100000000C9491000C94B9000C94B9000C94B900B4
:100010000C94B9000C94B9000C94B9000C94B9007C
:100020000C94B9000C94B9000C94B9000C9487049A
:100030000C94B9000C9421070C9453070C94B9004C
:100040000C94B9000C94B9000C94B9000C94B9004C
:100050000C94B900646F6E65004B6579626F6172D4
:100060006420696E69742E2E2E00646F6E650052D6
:1000700065736574206F6E20626F6F742E2E2E0074
:100080005A5820756E696B6579626F61726420637E
:100090006F6E74726F6C6C65722076312E3000005A
:1000A000000002000000000000000005040007003E
:1000B000000000000000000000000000000000013F
:1000C0000204081020408001020408102040800132
:1000D0000204081020408001020408102040800221
:1000E00002020202020202040404040404040403DF
:1000F00003030303030303010101010101010100E3
:1001000000390036003300300000003B0038003575
:1001100000320000003A0037003400310000F103E3
:10012000830711241FBECFE5D8E0DEBFCDBF11E0AD
:10013000A0E6B0E0ECE0F8E102C005900D92A8382E
:10014000B107D9F722E0A8E8B1E001C01D92A636B8
:10015000B207E1F710E0C1E9D0E004C02197FE0149
:100160000E948B09CF38D107C9F70E9459090C9416
:10017000040C0C940000FF920F931F93CF93DF9316
:10018000EC01F62E08811981C8010E94B80BF816FF
:1001900021F06F2DC8010E94C00BCE01DF91CF91DD
:1001A0001F910F91FF9008958FB90000779BFECFAC
:1001B0008FB10895CF92DF92EF92FF92982F990F0F
:1001C000990F990F30E020E080E0C12CD12C76010E
:1001D000C3949C3290F4B701A601022E04C0440FD0
:1001E000551F661F771F0A94D2F7E92FF0E0E457F6
:1001F000FE4FE081EE2361F0842B2F5F3F4F9F5F26
:100200002830310531F7FF90EF90DF90CF900895BF
:1002100040958423F2CFCF93DF93D82FC62F309110
:100220008801209189018091BA01882381F09FB7CC
:10023000F8948091BA01813059F58BB78093B80159
:100240004BB78091B901809584238BBF9FBF3DB987
:100250002EB960E084E00E94A4058D2F0E94D40096
:100260008C2F0E94D40061E084E00E94A40580915C
:10027000BA01882351F09FB7F8942091BA01809178
:10028000B801213041F48BBF9FBFDF91CF9108951A
:100290009093B801DCCF8FBFF8CFCF93C0E08C2F05
:1002A0000E94DA00CF5F682F8C2F0E940B01C630AE
:1002B000B1F7CF910895CF93DF93CCE8D1E081E0FF
:1002C0008AA70E944D0164EF71E080E090E00E94F7
:1002D000F7041AA6DF91CF910C944D01ECE8F1E000
:1002E0009F012C5831402817390714F41192F8CF88
:1002F0000895CF93DF9388E290E00E946E01CCE8EE
:10030000D1E081E088A70E944D0164EF71E080E0B8
:1003100090E00E94F70418A6DF91CF910C944D0154
:10032000EF92FF921F93CF93DF9300D0CDB7DEB74C
:100330007C01162F0E94B80B8A3011F0843169F4C9
:1003400011E08A3009F010E0812F0F900F90DF91BB
:10035000CF911F91FF90EF90089564E111116AE031
:10036000FA82E982CE0101960E94BB00EDCFCF93C5
:10037000DF9300D0CDB7DEB761110CC064E19A8382
:100380008983CE0101960E94BB000F900F90DF91F0
:10039000CF9108956AE0F3CF833408F062C1E82F6B
:1003A000F0E0EB52FE4F0C948B0918021C02200265
:1003B000200218021C02DC0254024E02580296026D
:1003C000AE0266029A02A202B602A60276028E026D
:1003D00092025A029E0262026A026E0272027A025D
:1003E0007E028202BA02B2026002AA025C028A02A1
:1003F0008602C002C402C802CC02D002D202D402D9
:10040000D602D802BE023C02420230023602240268
:100410002A024802E402E002E802EC02F002F402DE
:10042000F802FC0200032D0308032F031E0304033C
:1004300081E080938C01089581E080939B01089571
:1004400081E080939B01F5CF81E080939B018093B5
:10045000A401089581E080939B0180938D0108950C
:1004600081E080938C018093A801089581E08093BE
:100470008C018093B001089581E080938C0180937A
:10048000AF01089581E080938C018093A0010895CD
:1004900081E080938C0180939301089581E08093A3
:1004A0008C0180939001089581E0809392010895DA
:1004B00081E0F1CF81E0D1CF81E08093B301089555
:1004C00081E0C5CF81E080939D01089581E0809314
:1004D0009E01089581E08093A501089581E08093B5
:1004E000AD01089581E08093B201089581E0809389
:1004F000A101089581E08093AA01089581E080938D
:10050000A201089581E080939A01089581E080938B
:10051000A301089581E08093AB01089581E0809369
:100520009901089581E080939101089581E080937D
:100530008E01089581E08093A601089581E0809363
:100540009501089581E08093AE01089581E0809344
:10055000A901089581E08093AC01089581E0809322
:100560009601089581E080939C01089581E0809335
:10057000B101089581E080939401089581E091CFC5
:1005800081E080938F01089581E080939701089521
:1005900081E080939F01089581E08093A7010895F1
:1005A00081E06DCF81E065CF81E05DCF81E06DCFEF
:1005B00081E080939801089581E080938C01E5CFDC
:1005C00081E080939B019FCF81E080939B0193CF3B
:1005D00081E080939B0165CF81E080939B018FCF69
:1005E00081E080939B0197CF81E080939B018FCF27
:1005F00081E080939B0193CF81E080939B0193CF17
:1006000081E080939B01A7CF81E080939B01B3CFD2
:1006100060918B0181E0682760938B0190E080E01E
:100620000E94B70180918B018093B5010E944D011A
:1006300064EF71E080E090E00C94F70460918A012F
:1006400081E0682760938A0181E090E00E94B70111
:1006500080918A018093B701E9CF0C945B010C94DF
:100660007901089560918B0190E080E00E949001F3
:1006700080938B0160918A0181E090E00E9490015B
:1006800080938A01ECE8F1E090918B0191A783A718
:1006900008959F92AF92BF92CF92DF92EF92FF9216
:1006A0000F931F93CF93DF93CDB7DEB72C970FB681
:1006B000F894DEBF0FBECDBF88E290E00E946E01CD
:1006C00096E8C92E90E0D92EF12C06E810E0E12C36
:1006D000D801ED918D01F0E0E257FF4FB080EF14AB
:1006E00009F476C062E08B2D0E946805E394B8E0BF
:1006F000EB12EECF86E7A82E80E0B82EF5019190A0
:100700005F01E92DF0E0E257FF4F80810E94D205A2
:10071000892BE9F509EA10E0E12CD80111969C91AA
:100720001197F601808198132CC012968C91981223
:1007300028C04AE06E2DCE0107960E94D20866E6D8
:1007400070E0CE0101960E94B308BE01695F7F4F41
:10075000CE0101960E942B0964E770E00E943E09D9
:10076000BC0185EC91E00E943208CE0101960E9406
:100770004408CE0107960E944408D8018C910E943B
:10078000CC01E3940D5F1F4FB3E4EB12C6CFE6E854
:10079000AE16E0E0BE0609F0B1CFF394FFEFCF1A3A
:1007A000DF0A88E0F81291CF0E944D012C960FB617
:1007B000F894DEBF0FBECDBFDF91CF911F910F9197
:1007C000FF90EF90DF90CF90BF90AF909F900895F3
:1007D00061E08B2D0E94680560E08B2D0E94A405CE
:1007E00085CFE8E8F1E080E5808381E081830895AA
:1007F000CF93DF9326E040E052EC61E070E085ECBF
:1008000091E00E94CE0685EC91E00E9467060E946E
:10081000550461E084E00E94680561E084E00E9484
:10082000A405C6E7D0E0E991F0E0E257FF4F62E0AF
:1008300080810E94680580E0C638D807A1F7C6E825
:10084000D0E0E991F0E0E257FF4F62E080810E9442
:10085000680580E0CE38D807A1F78CE290E00E94CE
:100860006E010E94320360E870E085EC91E00E9426
:1008700020086FE670E085EC91E00E9420080E945D
:1008800079016AE670E085EC91E00E94200869E554
:1008900070E085EC91E00E94200864E570E085EC52
:1008A00091E0DF91CF910C942008CF93CFB7F894CB
:1008B0008091BB01811123C0E3EEF0E08491E3EC71
:1008C000F0E09491E82FF0E0EE0FFF1FED5EFE4F99
:1008D000A591B491EC91E92321F461E084E00E94B8
:1008E000A40561E084E00E9468056C9A6E9A61E05C
:1008F00087E00E94680561E085E00E9468058091BC
:10090000BB018F5F8093BB01CFBFCF9108951F9232
:100910000F920FB60F9211242F933F938F939F93B3
:10092000AF93BF938091BD019091BE01A091BF0193
:10093000B091C0013091BC0126E0230F2D3758F54E
:100940000296A11DB11D2093BC018093BD0190931F
:10095000BE01A093BF01B093C0018091C1019091ED
:10096000C201A091C301B091C4010196A11DB11DA6
:100970008093C1019093C201A093C301B093C401BD
:10098000BF91AF919F918F913F912F910F900FBE8B
:100990000F901F90189529E8230F0396A11DB11DF4
:1009A000D2CF3FB7F8948091C1019091C201A0913C
:1009B000C301B091C40122B708B600FE05C02F3FA5
:1009C00019F00196A11DB11D3FBFBA2FA92F982F75
:1009D0008827BC01CD01620F711D811D911D43E06F
:1009E000660F771F881F991F4A95D1F708958F9238
:1009F0009F92AF92BF92CF92DF92EF92FF926B01E4
:100A00007C010E94D1044B015C01C114D104E104BA
:100A1000F104E9F00E9468090E94D104681979097B
:100A20008A099B09683E73408105910570F321E0B6
:100A3000C21AD108E108F10888EE880E83E0981EFA
:100A4000A11CB11CC114D104E104F10429F7FF90E9
:100A5000EF90DF90CF90BF90AF909F908F900895D0
:100A6000789483B7836083BF83B7886483BF89B773
:100A7000816089BF82E08EBD8EB581608EBD8FB5ED
:100A800081608FBD85B5846085BD85B5806485BD79
:100A900086E886B91AB80895843059F028F4813070
:100AA00099F0823089F00895853039F0873041F02F
:100AB00008958FB58F778FBD08958FB58F7DFBCF4C
:100AC00085B58F7D85BD089583B78F7D83BF0895DC
:100AD000CF93DF9390E0FC01E154FF4F24918152CA
:100AE0009F4FFC0184918823C9F090E0880F991FE3
:100AF000FC01ED5EFE4FA591B491FC01E75FFE4F56
:100B0000C591D49161110DC09FB7F8948C91209537
:100B100082238C938881282328839FBFDF91CF91E4
:100B20000895623051F49FB7F8943C91822F8095DC
:100B300083238C93E8812E2BEFCF8FB7F894EC9121
:100B40002E2B2C938FBFEACF1F93CF93DF93282FA9
:100B500030E0F901E156FF4F8491F901E154FF4F74
:100B6000D491F901E152FF4FC491CC23A9F0162F83
:100B700081110E944C05EC2FF0E0EE0FFF1FE75FA4
:100B8000FE4FA591B4918FB7F894EC91111108C064
:100B9000D095DE23DC938FBFDF91CF911F91089515
:100BA000DE2BF8CFCF93DF93282F30E0F901E15609
:100BB000FF4F8491F901E154FF4FD491F901E152C3
:100BC000FF4FC491CC23A1F081110E944C05EC2F62
:100BD000F0E0EE0FFF1FE150FF4FA591B491EC91B3
:100BE000ED2381E090E009F480E0DF91CF9108955A
:100BF00080E090E0FACFFC01918D228D892F90E06A
:100C0000805C9F4F821B91098F7399270895FC0187
:100C1000918D828D981731F0828DE80FF11D858DB1
:100C200090E008958FEF9FEF0895FC01918D828DE4
:100C3000981761F0A28DAE0FBF2FB11D5D968C91FC
:100C4000928D9F5F9F73928F90E008958FEF9FEF3B
:100C50000895FC01538D448D252F30E0842F90E0C2
:100C6000821B930B541710F0CF96089501970895A7
:100C700089E797E0892B49F080E090E0892B29F003
:100C80000E94790781110C9400000895FC01A48D45
:100C9000A80FB92FB11DA35ABF4F2C91848D90E09E
:100CA00001968F739927848FA689B7892C93A08981
:100CB000B1898C9180648C93938D848D981306C038
:100CC0000288F389E02D80818F7D80830895CF9302
:100CD000DF93EC01888D8823B9F0AA89BB89E88964
:100CE000F9898C9185FD03C0808186FD0DC00FB60A
:100CF00007FCF7CF8C9185FFF2CF808185FFEDCF88
:100D0000CE010E944606E9CFDF91CF910895EF9280
:100D1000FF920F931F93CF93DF93EC0181E0888FB5
:100D20009B8D8C8D981316C0E889F989808185FF89
:100D300011C0EE89FF896083E889F9898081806428
:100D4000808381E090E0DF91CF911F910F91FF9020
:100D5000EF900895F62E0B8D10E00F5F1F4F0F736D
:100D60001127E02E8C8D8E110CC00FB607FCFACF28
:100D7000E889F989808185FFF5CFCE010E9446067A
:100D8000F1CFEB8DEC0FFD2FF11DE35AFF4FF082F9
:100D90000B8FEA89FB8980818062D2CFCF92DF926C
:100DA000EF92FF921F93CF93DF93EC016A017B01D7
:100DB000122F60E874E88EE190E0A70196010E948E
:100DC00069092150310941095109569547953795CF
:100DD0002795E889F98982E08083211580E1380729
:100DE00098F0E889F989108260E472E48FE090E07D
:100DF000A70196010E946909215031094109510951
:100E00005695479537952795EC85FD853083EE857A
:100E1000FF852083188E1068EC89FD891083EA898C
:100E2000FB89808188698083EA89FB8980818F7D45
:100E30008083DF91CF911F91FF90EF90DF90CF9053
:100E400008951F920F920FB60F9211242F938F9334
:100E50009F93EF93FF93E091D501F091D6018081AC
:100E6000E091DB01F091DC0182FD1BC0908180915B
:100E7000DE018F5F8F732091DF01821741F0E091D7
:100E8000DE01F0E0EB53FE4F958F8093DE01FF9182
:100E9000EF919F918F912F910F900FBE0F901F9008
:100EA00018958081F4CF1F920F920FB60F921124E4
:100EB0002F933F934F935F936F937F938F939F9362
:100EC000AF93BF93EF93FF9385EC91E00E944606AA
:100ED000FF91EF91BF91AF919F918F917F916F9112
:100EE0005F914F913F912F910F900FBE0F901F90E8
:100EF000189585EC91E00E94FB0521E0892B09F40F
:100F000020E0822F0895E5ECF1E01382128288EE52
:100F100093E0A0E0B0E084839583A683B78386E75F
:100F200091E09183808380E490E09587848729E233
:100F300030E0378726872BE230E0318B208B2AE2A6
:100F400030E0338B228B958B848B8CE290E0978BF7
:100F5000868B118E128E138E148E0895AF92BF92CF
:100F6000CF92DF92EF92FF920F931F93CF93DF9375
:100F70006C017B018B01040F151FEB015E01AE18A4
:100F8000BF08C017D10759F06991D601ED91FC91C6
:100F90000190F081E02DC6010995892B79F7C501F3
:100FA000DF91CF911F910F91FF90EF90DF90CF9045
:100FB000BF90AF900895FB0101900020E9F73197B1
:100FC000AF01461B570BDC01ED91FC910280F381D0
:100FD000E02D0994EF92FF920F931F93CF93DF932D
:100FE0008C017B01D0E0C0E0F701EC0FFD1F6491A4
:100FF000662361F0D801ED91FC910190F081E02D24
:10100000C8010995892B11F02196EECFCE01DF9111
:10101000CF911F910F91FF90EF900895DB011496EF
:101020004D915C9115976D917C91DC01ED91FC9156
:101030000280F381E02D099464E871E00C94DB07F1
:101040000F931F93CF93DF93EC010E94EA078C016B
:10105000CE010E941C08800F911FDF91CF911F913C
:101060000F9108950F931F93CF93DF93EC010E948C
:101070000E088C01CE010E941C08800F911FDF9189
:10108000CF911F910F910895FC01808191810C9463
:101090002D0ACF93DF93EC0188819981009711F09D
:1010A0000E942D0A198218821D821C821B821A82BC
:1010B000DF91CF9108950F931F93CF93DF93EC01AE
:1010C0008B016F5F7F4F888199810E94B60A0097DC
:1010D00051F0998388831B830A8381E0DF91CF914C
:1010E0001F910F91089580E0F9CFCF93DF93EC012A
:1010F00088819981892B49F08A819B81861797077E
:1011000020F081E0DF91CF910895CE010E945B082D
:101110008823C1F38C819D81892B99F7E881F9811E
:101120001082EFCFEF92FF920F931F93CF93DF9335
:10113000EC017B018A01BA010E94750881110BC084
:10114000CE010E944908CE01DF91CF911F910F91EE
:10115000FF90EF9008951D830C83B70188819981DA
:101160000E947C0BF0CFFC0111821082138212824C
:10117000158214826115710551F0FB010190002068
:10118000E9F73197AF01461B570B0C94920808956D
:10119000FB0101900020E9F73197AF01461B570B87
:1011A0000C9492080F931F93CF93DF93CDB7DEB7C4
:1011B00029970FB6F894DEBF0FBECDBF8C01862FE6
:1011C000F80111821082138212821582148250E07B
:1011D000BE016F5F7F4F90E00E94830BBE016F5F87
:1011E0007F4FC8010E94C80829960FB6F894DEBF49
:1011F0000FBECDBFDF91CF911F910F910895EF9258
:10120000FF920F931F93CF93DF936115710541F404
:1012100080E0DF91CF911F910F91FF90EF900895A3
:1012200041155105B1F07B01EC010C811D81040FCA
:10123000151FB8010E947508882351F32881398150
:101240008C819D81B701820F931F0E947C0B1D83AF
:101250000C8381E0DECFCF93DF93EC01FB0144816F
:101260005581608171810E94FF08811103C0CE0108
:101270000E944908CE01DF91CF910895CF93DF936B
:10128000EC016115710539F4CE010E944908CE01C7
:10129000DF91CF910895FB0101900020E9F731978C
:1012A000AF01461B570B0E94FF08882369F3EFCF5D
:1012B00008950E9430050E9458090E94F803C8E36F
:1012C000D6E00E9449032097E1F30E943806F9CF47
:1012D0000895A1E21A2EAA1BBB1BFD010DC0AA1F77
:1012E000BB1FEE1FFF1FA217B307E407F50720F08F
:1012F000A21BB30BE40BF50B661F771F881F991F0A
:101300001A9469F760957095809590959B01AC0152
:10131000BD01CF010895EE0FFF1F0590F491E02D60
:1013200009940F931F93CF93DF938230910510F4AC
:1013300082E090E0E0916402F091650230E020E00C
:10134000B0E0A0E0309799F42115310509F44AC0C6
:10135000281B390B24303105D8F58A819B81611512
:10136000710589F1FB0193838283FE0111C04081E5
:1013700051810281138148175907E0F04817590736
:1013800099F4109761F012960C93129713961C9390
:101390003296CF01DF91CF911F910F910895009365
:1013A000640210936502F4CF2115310551F0421704
:1013B000530738F0A901DB019A01BD01DF01F801F3
:1013C000C1CFEF01F9CF9093650280936402CDCF36
:1013D000FE01E20FF31F819391932250310939836B
:1013E0002883D7CF2091620230916302232B41F4EE
:1013F0002091620030916300309363022093620277
:1014000020916000309161002115310541F42DB724
:101410003EB74091640050916500241B350BE0916C
:101420006202F0916302E217F307A0F42E1B3F0B58
:101430002817390778F0AC014E5F5F4F2417350746
:1014400048F04E0F5F1F50936302409362028193F6
:1014500091939FCFF0E0E0E09CCFCF93DF93009794
:10146000E9F0FC01329713821282A0916402B091DC
:101470006502ED0130E020E01097A1F42081318178
:10148000820F931F2091620230916302281739075F
:1014900009F061C0F0936302E0936202DF91CF91A3
:1014A0000895EA01CE17DF07E8F54A815B819E01C6
:1014B00041155105B1F7E901FB83EA83499159913F
:1014C000C40FD51FEC17FD0761F48081918102964E
:1014D000840F951FE90199838883828193819B837F
:1014E0008A83F0E0E0E012968D919C91139700972B
:1014F000B9F52D913C911197CD010296820F931F62
:1015000020916202309163022817390739F630972B
:1015100051F51092650210926402B0936302A09399
:101520006202BCCFD383C28340815181840F951F57
:10153000C817D90761F44E5F5F4F88819981480FC2
:10154000591F518340838A819B8193838283211514
:10155000310509F0B0CFF0936502E09364029ECFAD
:10156000FD01DC01C0CF13821282D7CFB0E0A0E032
:10157000ECEBFAE00C94CF0B8C01009751F4CB010B
:101580000E9491098C01C801CDB7DEB7E0E10C944F
:10159000EB0BFC01E60FF71F9C0122503109E2170B
:1015A000F30708F49DC0D901CD91DC911197C617BE
:1015B000D70798F0C530D10530F3CE0104978617D0
:1015C000970708F3C61BD70B2297C193D1936D934E
:1015D0007C93CF010E942D0AD6CF5B01AC1ABD0AC5
:1015E0004C018C0E9D1EA0916402B0916502512C9D
:1015F000412CF12CE12C109731F5809162029091F1
:1016000063028815990509F05CC04616570608F074
:1016100058C08091600090916100009741F48DB7AF
:101620009EB74091640050916500841B950BE817AC
:10163000F90708F055C0F0936302E0936202F901E4
:1016400071836083A0CF8D919C91119712966C90BD
:10165000129713967C901397A815B90559F56C014C
:1016600042E0C40ED11CCA14DB0420F1AC014A19BB
:101670005B09DA011296159780F0628273825183BA
:101680004083D9016D937C93E114F10471F0D7018B
:101690001396FC93EE93129776CF22968C0F9D1F94
:1016A000F90191838083F301EFCFF0936502E0931A
:1016B000640269CF4816590608F42C017D01D30154
:1016C0009ACFCB010E9491097C01009749F0AE01AD
:1016D000B8010E94730BC8010E942D0A870153CFE5
:1016E00010E000E050CFFB01DC0102C001900D9240
:1016F00041505040D8F70895FB01DC0101900D9254
:101700000020E1F708954532510520F4423010F0F1
:101710000C948E0BFB011082CB010895BB27FB01BB
:101720005527AA27880F991FAA1FA41710F0A41BDA
:1017300083955051B9F7A05DAA3308F0A95DA19334
:10174000009779F7B111B1931192CB010C94A80BCA
:10175000DC01FC01672F71917723E1F7329704C018
:101760007C916D9370836291AE17BF07C8F30895A3
:10177000E199FECF9FBB8EBBE09A99278DB3089568
:10178000262FE199FECF9FBB8EBB2DBB0FB6F894E1
:10179000E29AE19A0FBE019608952F923F924F92DE
:1017A0005F926F927F928F929F92AF92BF92CF92F1
:1017B000DF92EF92FF920F931F93CF93DF93CDB7FA
:1017C000DEB7CA1BDB0B0FB6F894DEBF0FBECDBF72
:1017D00009942A88398848885F846E847D848C8443
:1017E0009B84AA84B984C884DF80EE80FD800C814C
:1017F0001B81AA81B981CE0FD11D0FB6F894DEBF2F
:0C1800000FBECDBFED010895F894FFCF9E
:10180C0000006602800050726573736564206B651E
:10181C0079202800290001020304050E0F10111273
:10182C00131415161718060708090A0B0C0DFF0AD6
:10183C000B0C0D0E0F10111213141516171F1E1D65
:10184C001C1B1A191800010203000C0401060402E7
:10185C000702030902040B05050805060A01070621
:10186C0014080D170907140A0D150B060F0C0D1093
:10187C000D06100E0A110F06111006121109121284
:10188C000613130B1414090E150711160917170854
:10189C00101809111908121A08131B09151C0A141F
:1018AC001D080E1E0D0E1F071520081121071222F0
:1018BC000713230914240B0E250A0E260B0F270AD7
:1018CC000F280B10290B112A0A122B0B122C0A139E
:1018DC002D0B132E06172F070F300C18310818324A
:1018EC000C17330C15340718350D14360B15370A35
:1018FC0015380B173908143A08153B06153C0A170E
:10190C003D09133E070E3F0D12400D1341090F42C6
:10191C000B16000000008706AE0729066706FB05BC
:08192C00150607060D0A000074
:00000001FF
