:100000000C9491000C94B9000C94B9000C94B900B4
:100010000C94B9000C94B9000C94B9000C94B9007C
:100020000C94B9000C94B9000C94B9000C94AE0473
:100030000C94B9000C9448070C947A070C94B900FE
:100040000C94B9000C94B9000C94B9000C94B9004C
:100050000C94B900646F6E65004B6579626F6172D4
:100060006420696E69742E2E2E00646F6E650052D6
:1000700065736574206F6E20626F6F742E2E2E0074
:100080005A5820756E696B6579626F61726420637E
:100090006F6E74726F6C6C65722076312E3000005A
:1000A000000002000000000000000005040007003E
:1000B000000000000000000000000000000000013F
:1000C0000204081020408001020408102040800132
:1000D0000204081020408001020408102040800221
:1000E00002020202020202040404040404040403DF
:1000F00003030303030303010101010101010100E3
:1001000000390036003300300000003B0038003575
:1001100000320000003A00370034003100001804BB
:10012000AA0711241FBECFE5D8E0DEBFCDBF11E086
:10013000A0E6B0E0EAE5F8E102C005900D92A03F2C
:10014000B107D9F722E0A0EFB1E001C01D92AE3CAB
:10015000B207E1F710E0C1E9D0E004C02197FE0149
:100160000E94B209CF38D107C9F70E9480090C94C8
:100170002B0C0C940000FF920F931F93CF93DF93EF
:10018000EC01F62E08811981C8010E94DF0BF816D8
:1001900021F06F2DC8010E94E70BCE01DF91CF91B6
:1001A0001F910F91FF9008958FB90000779BFECFAC
:1001B0008FB10895CF92DF92EF92FF92982F990F0F
:1001C000990F990F30E020E080E0C12CD12C76010E
:1001D000C3949C3290F4B701A601022E04C0440FD0
:1001E000551F661F771F0A94D2F7E92FF0E0EC50F5
:1001F000FE4FE081EE2361F0842B2F5F3F4F9F5F26
:100200002830310531F7FF90EF90DF90CF900895BF
:1002100040958423F2CFCF93DF93D82FC62F309110
:10022000F0012091F10180912202882381F09FB793
:10023000F89480912202813059F58BB78093200287
:100240004BB780912102809584238BBF9FBF3DB91E
:100250002EB960E084E00E94CB058D2F0E94D4006F
:100260008C2F0E94D40061E084E00E94CB05809135
:100270002202882351F09FB7F894209122028091A6
:100280002002213041F48BBF9FBFDF91CF910895B1
:1002900090932002DCCF8FBFF8CFCF93C0E08C2F9C
:1002A0000E94DA00CF5F682F8C2F0E940B01C630AE
:1002B000B1F7CF910895CF93DF93C4EFD1E081E000
:1002C0008AA70E944D0164EF71E080E090E00E94F7
:1002D0001E051AA6DF91CF910C944D01E4EFF1E0D9
:1002E0009F01245F31402817390714F41192F8CF89
:1002F0000895CF93DF9388E290E00E946E01C4EFEF
:10030000D1E081E088A70E944D0164EF71E080E0B8
:1003100090E00E941E0518A6DF91CF910C944D012C
:10032000EF92FF921F93CF93DF9300D0CDB7DEB74C
:100330007C01162F0E94DF0B8A3011F0843169F4A2
:1003400011E08A3009F010E0812F0F900F90DF91BB
:10035000CF911F91FF90EF90089564E111116AE031
:10036000FA82E982CE0101960E94BB00EDCFCF93C5
:10037000DF9300D0CDB7DEB761110CC064E19A8382
:100380008983CE0101960E94BB000F900F90DF91F0
:10039000CF9108956AE0F3CF843608F083C1E82F47
:1003A000F0E0EB52FE4F0C94B209690252034E0387
:1003B00052035203520352035203520352032903BE
:1003C0005203500352033F034502520352035203A8
:1003D00052034B02E102E502E902ED02F102F302EF
:1003E000F502F702F902DF02050301036F0252036F
:1003F0005203520352035203B702CF028702BB02D9
:10040000C302D702C7029702AF02B30209030D036A
:1004100025035203520352035203FD027B02BF0223
:1004200083028B028F0293029B029F02A302190395
:100430001D0375025203520352033902DB02D30239
:100440008102CB027D02AB02A70211031503210337
:100450003D02510252035203520352033902520326
:10046000520341027902410252033D025D025702EA
:10047000630281E08093F401089581E08093030298
:10048000089581E080930302F5CF81E08093030219
:1004900080930C02089581E0809303028093F5011C
:1004A000089581E08093F40180931002089581E023
:1004B0008093F40180931802089581E08093F40101
:1004C00080931702089581E08093F40180930802DD
:1004D000089581E08093F4018093FB01089581E009
:1004E0008093F4018093F801089581E08093FA01EC
:1004F000089581E0F1CF81E0D1CF81E080931B02AC
:10050000089581E0C5CF81E080930502089581E0E0
:1005100080930602089581E080930D02089581E0A2
:1005200080931502089581E080931A02089581E076
:1005300080930902089581E080931202089581E07A
:1005400080930A02089581E080930202089581E079
:1005500080930B02089581E080931302089581E057
:1005600080930102089581E08093F901089581E06C
:100570008093F601089581E080930E02089581E052
:100580008093FD01089581E080931602089581E033
:1005900080931102089581E080931402089581E010
:1005A0008093FE01089581E080930402089581E024
:1005B00080931902089581E08093FC01089581E001
:1005C00091CF81E08093F701089581E08093FF014E
:1005D000089581E080930702089581E080930F02DF
:1005E000089581E06DCF81E065CF81E05DCF81E04E
:1005F0006DCF81E080930002089581E08093F40143
:10060000E5CF81E0809303029FCF81E080930302D6
:1006100093CF81E08093030265CF81E08093030252
:100620008FCF81E08093030297CF81E08093030214
:100630008FCF81E08093030293CF81E08093030208
:1006400093CF81E080930302A7CF81E080930302E0
:10065000B3CF6091F30181E068276093F30190E0EC
:1006600080E00E94B7018091F30180931D020E94F7
:100670004D0164EF71E080E090E00C941E05609104
:10068000F20181E068276093F20181E090E00E942E
:10069000B7018091F20180931F02E9CF0C945B01B6
:1006A0000C94790108956091F30190E080E00E943C
:1006B00090018093F3016091F20181E090E00E944B
:1006C00090018093F201E4EFF1E09091F30191A7A2
:1006D00083A708959F92AF92BF92CF92DF92EF923D
:1006E000FF920F931F93CF93DF93CDB7DEB72C9775
:1006F0000FB6F894DEBF0FBECDBF88E290E00E9437
:100700006E0191E9C92E90E0D92EF12C01E910E09B
:10071000E12CD801ED918D01F0E0EA58FF4FB08057
:10072000EF1409F451C062E08B2D0E948F05E39411
:10073000B8E0EB12EECF89E9A82E80E0B82EF501E3
:1007400091905F01E92DF0E0EA58FF4F80810E940F
:10075000F905892B09F04BC009EA10E0E12CD8011A
:1007600011968C911197F601208112969C9182131B
:1007700034C0991236C04AE06E2DCE0107960E9411
:10078000F90866E670E0CE0101960E94DA08BE0123
:10079000695F7F4FCE0101960E94520964E770E0C5
:1007A0000E946509BC018DE292E00E945908CE01C9
:1007B00001960E946B08CE0107960E946B08D80133
:1007C0008C910E94CC010DC061E08B2D0E948F05A1
:1007D00060E08B2D0E94CB05AACF291302C098168A
:1007E00051F2E3940D5F1F4FB6E6EB12B8CFE9EA82
:1007F000AE16E0E0BE0609F0A2CFF394FFEFCF1AE9
:10080000DF0A88E0F81282CF0E944D012C960FB6C5
:10081000F894DEBF0FBECDBFDF91CF911F910F9136
:10082000FF90EF90DF90CF90BF90AF909F90089592
:10083000E0EFF1E080E5808381E081830895CF934C
:10084000DF9326E040E052EC61E070E08DE292E060
:100850000E94F5068DE292E00E948E060E947C04C2
:1008600061E084E00E948F0561E084E00E94CB0596
:10087000C9E9D0E0E991F0E0EA58FF4F62E08081F9
:100880000E948F0580E0C93AD807A1F7C1E9D0E0FE
:10089000E991F0E0EA58FF4F62E080810E948F0505
:1008A00080E0C939D807A1F78CE290E00E946E0180
:1008B0000E94530360E870E08DE292E00E944708D6
:1008C0006FE670E08DE292E00E9447080E94790195
:1008D0006AE670E08DE292E00E94470869E570E008
:1008E0008DE292E00E94470864E570E08DE292E0BC
:1008F000DF91CF910C944708CF93CFB7F8948091B4
:100900002302811123C0E3EEF0E08491E3ECF0E0F8
:100910009491E82FF0E0EE0FFF1FED5EFE4FA591E2
:10092000B491EC91E92321F461E084E00E94CB05CD
:1009300061E084E00E948F056C9A6E9A61E087E026
:100940000E948F0561E085E00E948F05809123025F
:100950008F5F80932302CFBFCF9108951F920F9294
:100960000FB60F9211242F933F938F939F93AF93C2
:10097000BF938091250290912602A0912702B09109
:1009800028023091240226E0230F2D3758F50296D5
:10099000A11DB11D2093240280932502909326026D
:1009A000A0932702B09328028091290290912A02F5
:1009B000A0912B02B0912C020196A11DB11D809334
:1009C000290290932A02A0932B02B0932C02BF918C
:1009D000AF919F918F913F912F910F900FBE0F90EC
:1009E0001F90189529E8230F0396A11DB11DD2CFA2
:1009F0003FB7F8948091290290912A02A0912B028E
:100A0000B0912C0222B708B600FE05C02F3F19F0A6
:100A10000196A11DB11D3FBFBA2FA92F982F88277E
:100A2000BC01CD01620F711D811D911D43E0660F58
:100A3000771F881F991F4A95D1F708958F929F922B
:100A4000AF92BF92CF92DF92EF92FF926B017C0147
:100A50000E94F8044B015C01C114D104E104F104CB
:100A6000E9F00E948F090E94F804681979098A093F
:100A70009B09683E73408105910570F321E0C21A1D
:100A8000D108E108F10888EE880E83E0981EA11CC9
:100A9000B11CC114D104E104F10429F7FF90EF90D7
:100AA000DF90CF90BF90AF909F908F9008957894F3
:100AB00083B7836083BF83B7886483BF89B781604E
:100AC00089BF82E08EBD8EB581608EBD8FB581609D
:100AD0008FBD85B5846085BD85B5806485BD86E89C
:100AE00086B91AB80895843059F028F4813099F005
:100AF000823089F00895853039F0873041F00895CB
:100B00008FB58F778FBD08958FB58F7DFBCF85B55E
:100B10008F7D85BD089583B78F7D83BF0895CF9363
:100B2000DF9390E0FC01E154FF4F249181529F4FED
:100B3000FC0184918823C9F090E0880F991FFC0183
:100B4000ED5EFE4FA591B491FC01E75FFE4FC591AC
:100B5000D49161110DC09FB7F8948C912095822398
:100B60008C938881282328839FBFDF91CF9108959C
:100B7000623051F49FB7F8943C91822F8095832383
:100B80008C93E8812E2BEFCF8FB7F894EC912E2B1E
:100B90002C938FBFEACF1F93CF93DF93282F30E0A2
:100BA000F901E156FF4F8491F901E154FF4FD491CF
:100BB000F901E152FF4FC491CC23A9F0162F811106
:100BC0000E947305EC2FF0E0EE0FFF1FE75FFE4F72
:100BD000A591B4918FB7F894EC91111108C0D095FC
:100BE000DE23DC938FBFDF91CF911F910895DE2B21
:100BF000F8CFCF93DF93282F30E0F901E156FF4F74
:100C00008491F901E154FF4FD491F901E152FF4F72
:100C1000C491CC23A1F081110E947305EC2FF0E068
:100C2000EE0FFF1FE150FF4FA591B491EC91ED2322
:100C300081E090E009F480E0DF91CF91089580E0B9
:100C400090E0FACFFC01918D228D892F90E0805C9D
:100C50009F4F821B91098F7399270895FC01918DF5
:100C6000828D981731F0828DE80FF11D858D90E00F
:100C700008958FEF9FEF0895FC01918D828D981755
:100C800061F0A28DAE0FBF2FB11D5D968C91928D3C
:100C90009F5F9F73928F90E008958FEF9FEF08956D
:100CA000FC01538D448D252F30E0842F90E0821B72
:100CB000930B541710F0CF9608950197089580EA8A
:100CC00097E0892B49F080E090E0892B29F00E9481
:100CD000A00781110C9400000895FC01A48DA80FB9
:100CE000B92FB11DA35ABF4F2C91848D90E001966E
:100CF0008F739927848FA689B7892C93A089B1898E
:100D00008C9180648C93938D848D981306C0028897
:100D1000F389E02D80818F7D80830895CF93DF93C9
:100D2000EC01888D8823B9F0AA89BB89E889F98903
:100D30008C9185FD03C0808186FD0DC00FB607FC38
:100D4000F7CF8C9185FFF2CF808185FFEDCFCE016B
:100D50000E946D06E9CFDF91CF910895EF92FF9247
:100D60000F931F93CF93DF93EC0181E0888F9B8DCE
:100D70008C8D981316C0E889F989808185FF11C090
:100D8000EE89FF896083E889F989808180648083A6
:100D900081E090E0DF91CF911F910F91FF90EF9054
:100DA0000895F62E0B8D10E00F5F1F4F0F73112764
:100DB000E02E8C8D8E110CC00FB607FCFACFE8899F
:100DC000F989808185FFF5CFCE010E946D06F1CFB4
:100DD000EB8DEC0FFD2FF11DE35AFF4FF0820B8FCF
:100DE000EA89FB8980818062D2CFCF92DF92EF9235
:100DF000FF921F93CF93DF93EC016A017B01122FC7
:100E000060E874E88EE190E0A70196010E949009E5
:100E10002150310941095109569547953795279534
:100E2000E889F98982E08083211580E1380798F00C
:100E3000E889F989108260E472E48FE090E0A7010C
:100E400096010E9490092150310941095109569596
:100E5000479537952795EC85FD853083EE85FF8591
:100E60002083188E1068EC89FD891083EA89FB893C
:100E7000808188698083EA89FB8980818F7D808376
:100E8000DF91CF911F91FF90EF90DF90CF90089569
:100E90001F920F920FB60F9211242F938F939F934F
:100EA000EF93FF93E0913D02F0913E028081E0914B
:100EB0004302F091440282FD1BC090818091460262
:100EC0008F5F8F7320914702821741F0E0914602B5
:100ED000F0E0E35DFD4F958F80934602FF91EF9127
:100EE0009F918F912F910F900FBE0F901F9018958B
:100EF0008081F4CF1F920F920FB60F9211242F937F
:100F00003F934F935F936F937F938F939F93AF9391
:100F1000BF93EF93FF938DE292E00E946D06FF91E5
:100F2000EF91BF91AF919F918F917F916F915F9161
:100F30004F913F912F910F900FBE0F901F901895DA
:100F40008DE292E00E94220621E0892B09F420E044
:100F5000822F0895EDE2F2E01382128288EE93E090
:100F6000A0E0B0E084839583A683B7838FED91E002
:100F70009183808380E490E09587848729E230E044
:100F8000378726872BE230E0318B208B2AE230E056
:100F9000338B228B958B848B8CE290E0978B868BA6
:100FA000118E128E138E148E0895AF92BF92CF922F
:100FB000DF92EF92FF920F931F93CF93DF936C0119
:100FC0007B018B01040F151FEB015E01AE18BF08FA
:100FD000C017D10759F06991D601ED91FC910190AC
:100FE000F081E02DC6010995892B79F7C501DF91C4
:100FF000CF911F910F91FF90EF90DF90CF90BF9016
:10100000AF900895FB0101900020E9F73197AF01FF
:10101000461B570BDC01ED91FC910280F381E02D22
:101020000994EF92FF920F931F93CF93DF938C015C
:101030007B01D0E0C0E0F701EC0FFD1F6491662357
:1010400061F0D801ED91FC910190F081E02DC80193
:101050000995892B11F02196EECFCE01DF91CF912A
:101060001F910F91FF90EF900895DB0114964D9121
:101070005C9115976D917C91DC01ED91FC91028062
:10108000F381E02D09946DEE71E00C9402080F934A
:101090001F93CF93DF93EC010E9411088C01CE01C6
:1010A0000E944308800F911FDF91CF911F910F91F4
:1010B00008950F931F93CF93DF93EC010E9435089F
:1010C0008C01CE010E944308800F911FDF91CF91C8
:1010D0001F910F910895FC01808191810C94540A15
:1010E000CF93DF93EC0188819981009711F00E94E2
:1010F000540A198218821D821C821B821A82DF9177
:10110000CF9108950F931F93CF93DF93EC018B0141
:101110006F5F7F4F888199810E94DD0A009751F0AF
:10112000998388831B830A8381E0DF91CF911F918C
:101130000F91089580E0F9CFCF93DF93EC01888180
:101140009981892B49F08A819B818617970720F026
:1011500081E0DF91CF910895CE010E94820888231B
:10116000C1F38C819D81892B99F7E881F9811082E7
:10117000EFCFEF92FF920F931F93CF93DF93EC018A
:101180007B018A01BA010E949C0881110BC0CE012B
:101190000E947008CE01DF91CF911F910F91FF90B7
:1011A000EF9008951D830C83B701888199810E9477
:1011B000A30BF0CFFC0111821082138212821582E0
:1011C00014826115710551F0FB0101900020E9F7CF
:1011D0003197AF01461B570B0C94B9080895FB01DA
:1011E00001900020E9F73197AF01461B570B0C9493
:1011F000B9080F931F93CF93DF93CDB7DEB729972D
:101200000FB6F894DEBF0FBECDBF8C01862FF8015C
:1012100011821082138212821582148250E0BE0164
:101220006F5F7F4F90E00E94AA0BBE016F5F7F4F00
:10123000C8010E94EF0829960FB6F894DEBF0FBED2
:10124000CDBFDF91CF911F910F910895EF92FF9243
:101250000F931F93CF93DF936115710541F480E0E5
:10126000DF91CF911F910F91FF90EF90089541155D
:101270005105B1F07B01EC010C811D81040F151F9C
:10128000B8010E949C08882351F3288139818C8100
:101290009D81B701820F931F0E94A30B1D830C83B6
:1012A00081E0DECFCF93DF93EC01FB0144815581D8
:1012B000608171810E942609811103C0CE010E94C4
:1012C0007008CE01DF91CF910895CF93DF93EC01A9
:1012D0006115710539F4CE010E947008CE01DF91CD
:1012E000CF910895FB0101900020E9F73197AF01FC
:1012F000461B570B0E942609882369F3EFCF0895F8
:101300000E9457050E947F090E941F04CFE5D6E086
:101310000E946A032097E1F30E945F06F9CF0895C7
:10132000A1E21A2EAA1BBB1BFD010DC0AA1FBB1FE9
:10133000EE1FFF1FA217B307E407F50720F0A21B5B
:10134000B30BE40BF50B661F771F881F991F1A94C8
:1013500069F760957095809590959B01AC01BD01F2
:10136000CF010895EE0FFF1F0590F491E02D099431
:101370000F931F93CF93DF938230910510F482E097
:1013800090E0E091CC02F091CD0230E020E0B0E0BE
:10139000A0E0309799F42115310509F44AC0281BC3
:1013A000390B24303105D8F58A819B81611571058F
:1013B00089F1FB0193838283FE0111C04081518139
:1013C0000281138148175907E0F04817590799F42B
:1013D000109761F012960C93129713961C93329605
:1013E000CF01DF91CF911F910F9108950093CC020F
:1013F0001093CD02F4CF2115310551F04217530758
:1014000038F0A901DB019A01BD01DF01F801C1CF6C
:10141000EF01F9CF9093CD028093CC02CDCFFE01A6
:10142000E20FF31F8193919322503109398328836E
:10143000D7CF2091CA023091CB02232B41F42091C7
:101440006200309163003093CB022093CA02209156
:101450006000309161002115310541F42DB73EB790
:101460004091640050916500241B350BE091CA0245
:10147000F091CB02E217F307A0F42E1B3F0B2817C5
:10148000390778F0AC014E5F5F4F2417350748F0FD
:101490004E0F5F1F5093CB024093CA0281939193EA
:1014A0009FCFF0E0E0E09CCFCF93DF930097E9F08F
:1014B000FC01329713821282A091CC02B091CD022E
:1014C000ED0130E020E01097A1F420813181820FFE
:1014D000931F2091CA023091CB022817390709F0D7
:1014E00061C0F093CB02E093CA02DF91CF910895DF
:1014F000EA01CE17DF07E8F54A815B819E014115BD
:101500005105B1F7E901FB83EA8349915991C40F71
:10151000D51FEC17FD0761F4808191810296840F3D
:10152000951FE90199838883828193819B838A83B4
:10153000F0E0E0E012968D919C9113970097B9F539
:101540002D913C911197CD010296820F931F20910E
:10155000CA023091CB022817390739F6309751F576
:101560001092CD021092CC02B093CB02A093CA028B
:10157000BCCFD383C28340815181840F951FC8178C
:10158000D90761F44E5F5F4F88819981480F591FD9
:10159000518340838A819B81938382832115310506
:1015A00009F0B0CFF093CD02E093CC029ECFFD01C5
:1015B000DC01C0CF13821282D7CFB0E0A0E0E3EE0F
:1015C000FAE00C94F60B8C01009751F4CB010E94C9
:1015D000B8098C01C801CDB7DEB7E0E10C94120C5C
:1015E000FC01E60FF71F9C0122503109E217F307B7
:1015F00008F49DC0D901CD91DC911197C617D7078A
:1016000098F0C530D10530F3CE01049786179707BF
:1016100008F3C61BD70B2297C193D1936D937C938C
:10162000CF010E94540AD6CF5B01AC1ABD0A4C010F
:101630008C0E9D1EA091CC02B091CD02512C412C5C
:10164000F12CE12C109731F58091CA029091CB02D8
:101650008815990509F05CC04616570608F058C071
:101660008091600090916100009741F48DB79EB722
:101670004091640050916500841B950BE817F907B1
:1016800008F055C0F093CB02E093CA02F9017183D0
:101690006083A0CF8D919C91119712966C901297B8
:1016A00013967C901397A815B90559F56C0142E083
:1016B000C40ED11CCA14DB0420F1AC014A195B0929
:1016C000DA011296159780F062827382518340830B
:1016D000D9016D937C93E114F10471F0D701139655
:1016E000FC93EE93129776CF22968C0F9D1FF901F3
:1016F00091838083F301EFCFF093CD02E093CC028E
:1017000069CF4816590608F42C017D01D3019ACF00
:10171000CB010E94B8097C01009749F0AE01B801E5
:101720000E949A0BC8010E94540A870153CF10E00F
:1017300000E050CFFB01DC0102C001900D9241504E
:101740005040D8F70895FB01DC0101900D92002074
:10175000E1F708954532510520F4423010F00C9421
:10176000B50BFB011082CB010895BB27FB01552768
:10177000AA27880F991FAA1FA41710F0A41B8395EE
:101780005051B9F7A05DAA3308F0A95DA193009765
:1017900079F7B111B1931192CB010C94CF0BDC010D
:1017A000FC01672F71917723E1F7329704C07C9198
:1017B0006D9370836291AE17BF07C8F30895E199E6
:1017C000FECF9FBB8EBBE09A99278DB30895262F3D
:1017D000E199FECF9FBB8EBB2DBB0FB6F894E29A6A
:1017E000E19A0FBE019608952F923F924F925F9219
:1017F0006F927F928F929F92AF92BF92CF92DF9221
:10180000EF92FF920F931F93CF93DF93CDB7DEB785
:10181000CA1BDB0B0FB6F894DEBF0FBECDBF099419
:101820002A88398848885F846E847D848C849B8470
:10183000AA84B984C884DF80EE80FD800C811B817E
:10184000AA81B981CE0FD11D0FB6F894DEBF0FBEAD
:0A185000CDBFED010895F894FFCF1D
:10185A000000CE02800050726573736564206B6568
:10186A00792028002900FF0A0B0C0D0E0F10111207
:10187A0013141516171F1E1D1C1B1A191800010216
:10188A00030C0D0F101213151601020304050607A7
:10189A0008090A0B0E11141718000A15010A0D027D
:1018AA000A0F03081304080D05041006040D0704A3
:1018BA000F08011609050D0A07100B07130C0B0D6B
:1018CA000D010D0E020F0F0110100E12110E131240
:1018DA00081513020D140910150912160A12170811
:1018EA00121806121906101A10181B12181C0412C4
:1018FA001D07121E0B101F0B0F20021021021222AD
:10190A000E1523151724041625161726090D27095F
:10191A000C280A1329080F2A06132B060D2C0D185A
:10192A002D13182E04132F070D300B12310B1332FF
:10193A00021333070F340E1035050F360E0F370F0B
:10194A00173808103909153A0A103B02153C0615D2
:10195A003D060F3E0F183F15184004154107154262
:10196A000B1543020C4402164501124601134701A6
:10197A0015481416490A164A0A0C4B0C174C060C41
:10198A004D06164E16184F0C1850040C51070C52DF
:10199A000B0C530C14540B16551317560D175710DE
:1019AA001758080C5903165A090F5B0D0E5C1116CD
:1019BA005D08165E0C115F051560030C6105136264
:1019CA00071663010F64091665121700000000AEBE
:1019DA0006D50750068E0622063C062E060D0A007C
:00000001FF
