:100000000C9491000C94B9000C94B9000C94B900B4
:100010000C94B9000C94B9000C94B9000C94B9007C
:100020000C94B9000C94B9000C94B9000C949C0485
:100030000C94B9000C9436070C9468070C94B90022
:100040000C94B9000C94B9000C94B9000C94B9004C
:100050000C94B900646F6E65004B6579626F6172D4
:100060006420696E69742E2E2E00646F6E650052D6
:1000700065736574206F6E20626F6F742E2E2E0074
:100080005A5820756E696B6579626F61726420637E
:100090006F6E74726F6C6C65722076312E3000005A
:1000A000000002000000000000000005040007003E
:1000B000000000000000000000000000000000013F
:1000C0000204081020408001020408102040800132
:1000D0000204081020408001020408102040800221
:1000E00002020202020202040404040404040403DF
:1000F00003030303030303010101010101010100E3
:1001000000390036003300300000003B0038003575
:1001100000320000003A00370034003100000604CD
:10012000980711241FBECFE5D8E0DEBFCDBF11E098
:10013000A0E6B0E0E6E3F8E102C005900D92A43B32
:10014000B107D9F722E0A4EBB1E001C01D92A239BA
:10015000B207E1F710E0C1E9D0E004C02197FE0149
:100160000E94A009CF38D107C9F70E946E090C94EC
:10017000190C0C940000FF920F931F93CF93DF9301
:10018000EC01F62E08811981C8010E94CD0BF816EA
:1001900021F06F2DC8010E94D50BCE01DF91CF91C8
:1001A0001F910F91FF9008958FB90000779BFECFAC
:1001B0008FB10895CF92DF92EF92FF92982F990F0F
:1001C000990F990F30E020E080E0C12CD12C76010E
:1001D000C3949C3290F4B701A601022E04C0440FD0
:1001E000551F661F771F0A94D2F7E92FF0E0E854F5
:1001F000FE4FE081EE2361F0842B2F5F3F4F9F5F26
:100200002830310531F7FF90EF90DF90CF900895BF
:1002100040958423F2CFCF93DF93D82FC62F309110
:10022000B4012091B5018091E601882381F09FB748
:10023000F8948091E601813059F58BB78093E40101
:100240004BB78091E501809584238BBF9FBF3DB95B
:100250002EB960E084E00E94B9058D2F0E94D40081
:100260008C2F0E94D40061E084E00E94B905809147
:10027000E601882351F09FB7F8942091E601809120
:10028000E401213041F48BBF9FBFDF91CF910895EE
:100290009093E401DCCF8FBFF8CFCF93C0E08C2FD9
:1002A0000E94DA00CF5F682F8C2F0E940B01C630AE
:1002B000B1F7CF910895CF93DF93C8EBD1E081E000
:1002C0008AA70E944D0164EF71E080E090E00E94F7
:1002D0000C051AA6DF91CF910C944D01E8EBF1E0EB
:1002E0009F01285B31402817390714F41192F8CF89
:1002F0000895CF93DF9388E290E00E946E01C8EBEF
:10030000D1E081E088A70E944D0164EF71E080E0B8
:1003100090E00E940C0518A6DF91CF910C944D013E
:10032000EF92FF921F93CF93DF9300D0CDB7DEB74C
:100330007C01162F0E94CD0B8A3011F0843169F4B4
:1003400011E08A3009F010E0812F0F900F90DF91BB
:10035000CF911F91FF90EF90089564E111116AE031
:10036000FA82E982CE0101960E94BB00EDCFCF93C5
:10037000DF9300D0CDB7DEB761110CC064E19A8382
:100380008983CE0101960E94BB000F900F90DF91F0
:10039000CF9108956AE0F3CF823508F071C1E82F5C
:1003A000F0E0EB52FE4F0C94A009570240033C03CF
:1003B000400340034003400340034003400317034E
:1003C00040033E0340032D03390233024003CF02B2
:1003D000D302D702DB02DF02E102E302E502E70219
:1003E000CD02F302EF025D024003A502BD027502D9
:1003F000A902B102C502B50285029D02A102F7025F
:10040000FB021303EB026902AD02710279027D0265
:10041000810289028D02910207030B036302270206
:10042000C902C1026F02B9026B0299029502FF0272
:1004300003030F032B022702400340032F0267022E
:100440002F0240032B024B0251023F02450281E082
:100450008093B801089581E08093C701089581E0F9
:100460008093C701F5CF81E08093C7018093D001CD
:10047000089581E08093C7018093B901089581E0D8
:100480008093B8018093D401089581E08093B801EE
:100490008093DC01089581E08093B8018093DB01B3
:1004A000089581E08093B8018093CC01089581E0A4
:1004B0008093B8018093BF01089581E08093B801D3
:1004C0008093BC01089581E08093BE01089581E08E
:1004D000F1CF81E0D1CF81E08093DF01089581E009
:1004E000C5CF81E08093C901089581E08093CA015E
:1004F000089581E08093D101089581E08093D9012E
:10050000089581E08093DE01089581E08093CD011C
:10051000089581E08093D601089581E08093CE0113
:10052000089581E08093C601089581E08093CF0112
:10053000089581E08093D701089581E08093C501FB
:10054000089581E08093BD01089581E08093BA0110
:10055000089581E08093D201089581E08093C101E4
:10056000089581E08093DA01089581E08093D501B8
:10057000089581E08093D801089581E08093C201BD
:10058000089581E08093C801089581E08093DD01A2
:10059000089581E08093C001089581E091CF81E0CA
:1005A0008093BB01089581E08093C301089581E0A9
:1005B0008093CB01089581E08093D301089581E079
:1005C0006DCF81E065CF81E05DCF81E06DCF81E0CF
:1005D0008093C401089581E08093B801E5CF81E064
:1005E0008093C7019FCF81E08093C70193CF81E0C3
:1005F0008093C70165CF81E08093C7018FCF81E0F1
:100600008093C70197CF81E08093C7018FCF81E0AE
:100610008093C70193CF81E08093C70193CF81E09E
:100620008093C701A7CF81E08093C701B3CF6091CA
:10063000B70181E068276093B70190E080E00E94F5
:10064000B7018091B7018093E1010E944D0164EFF1
:1006500071E080E090E00C940C056091B60181E0BF
:1006600068276093B60181E090E00E94B701809115
:10067000B6018093E301E9CF0C945B010C947901FE
:1006800008956091B70190E080E00E94900180930E
:10069000B7016091B60181E090E00E9490018093E3
:1006A000B601E8EBF1E09091B70191A783A7089517
:1006B0009F92AF92BF92CF92DF92EF92FF920F93F1
:1006C0001F93CF93DF93CDB7DEB72C970FB6F89477
:1006D000DEBF0FBECDBF88E290E00E946E0191EABE
:1006E000C92E90E0D92EF12C01EA10E0E12CD801BE
:1006F000ED918D01F0E0EA58FF4FB080EF1409F45E
:1007000051C062E08B2D0E947D05E394B8E0EB12AE
:10071000EECF81E9A82E80E0B82EF50191905F011F
:10072000E92DF0E0EA58FF4F80810E94E705892B10
:1007300009F04BC009EA10E0E12CD80111968C9128
:100740001197F601208112969C91821334C0991260
:1007500036C04AE06E2DCE0107960E94E70866E695
:1007600070E0CE0101960E94C808BE01695F7F4F0C
:10077000CE0101960E94400964E770E00E9453098F
:10078000BC0181EF91E00E944708CE0101960E94D2
:100790005908CE0107960E945908D8018C910E94F1
:1007A000CC010DC061E08B2D0E947D0560E08B2D9A
:1007B0000E94B905AACF291302C0981651F2E394FA
:1007C0000D5F1F4FB2E5EB12B8CFE1EAAE16E0E0E5
:1007D000BE0609F0A2CFF394FFEFCF1ADF0A88E03C
:1007E000F81282CF0E944D012C960FB6F894DEBF0E
:1007F0000FBECDBFDF91CF911F910F91FF90EF9072
:10080000DF90CF90BF90AF909F900895E4EBF1E020
:1008100080E5808381E081830895CF93DF9326E094
:1008200040E052EC61E070E081EF91E00E94E3066D
:1008300081EF91E00E947C060E946A0461E084E0FE
:100840000E947D0561E084E00E94B905C1E9D0E025
:10085000E991F0E0EA58FF4F62E080810E947D0557
:1008600080E0C13AD807A1F7C1EAD0E0E991F0E011
:10087000EA58FF4F62E080810E947D0580E0C93A1E
:10088000D807A1F78CE290E00E946E010E9441031C
:1008900060E870E081EF91E00E9435086FE670E05B
:1008A00081EF91E00E9435080E9479016AE670E0CC
:1008B00081EF91E00E94350869E570E081EF91E0F9
:1008C0000E94350864E570E081EF91E0DF91CF91FF
:1008D0000C943508CF93CFB7F8948091E70181113C
:1008E00023C0E3EEF0E08491E3ECF0E09491E82F94
:1008F000F0E0EE0FFF1FED5EFE4FA591B491EC917D
:10090000E92321F461E084E00E94B90561E084E01C
:100910000E947D056C9A6E9A61E087E00E947D05D9
:1009200061E085E00E947D058091E7018F5F809303
:10093000E701CFBFCF9108951F920F920FB60F928C
:1009400011242F933F938F939F93AF93BF938091E5
:10095000E9019091EA01A091EB01B091EC01309195
:10096000E80126E0230F2D3758F50296A11DB11D91
:100970002093E8018093E9019093EA01A093EB01B1
:10098000B093EC018091ED019091EE01A091EF0107
:10099000B091F0010196A11DB11D8093ED019093DE
:1009A000EE01A093EF01B093F001BF91AF919F9141
:1009B0008F913F912F910F900FBE0F901F90189520
:1009C00029E8230F0396A11DB11DD2CF3FB7F8949C
:1009D0008091ED019091EE01A091EF01B091F001B5
:1009E00022B708B600FE05C02F3F19F00196A11DE1
:1009F000B11D3FBFBA2FA92F982F8827BC01CD0169
:100A0000620F711D811D911D43E0660F771F881FC6
:100A1000991F4A95D1F708958F929F92AF92BF92F6
:100A2000CF92DF92EF92FF926B017C010E94E6046D
:100A30004B015C01C114D104E104F104E9F00E940E
:100A40007D090E94E604681979098A099B09683EB4
:100A500073408105910570F321E0C21AD108E108C5
:100A6000F10888EE880E83E0981EA11CB11CC11409
:100A7000D104E104F10429F7FF90EF90DF90CF90CB
:100A8000BF90AF909F908F900895789483B78360C4
:100A900083BF83B7886483BF89B7816089BF82E0E1
:100AA0008EBD8EB581608EBD8FB581608FBD85B5E1
:100AB000846085BD85B5806485BD86E886B91AB831
:100AC0000895843059F028F4813099F0823089F00B
:100AD0000895853039F0873041F008958FB58F77CC
:100AE0008FBD08958FB58F7DFBCF85B58F7D85BD7B
:100AF000089583B78F7D83BF0895CF93DF9390E0F0
:100B0000FC01E154FF4F249181529F4FFC018491DD
:100B10008823C9F090E0880F991FFC01ED5EFE4F1D
:100B2000A591B491FC01E75FFE4FC591D49161118D
:100B30000DC09FB7F8948C91209582238C93888167
:100B4000282328839FBFDF91CF910895623051F40D
:100B50009FB7F8943C91822F809583238C93E881F2
:100B60002E2BEFCF8FB7F894EC912E2B2C938FBFB9
:100B7000EACF1F93CF93DF93282F30E0F901E1569E
:100B8000FF4F8491F901E154FF4FD491F901E152F3
:100B9000FF4FC491CC23A9F0162F81110E9461054B
:100BA000EC2FF0E0EE0FFF1FE75FFE4FA591B49131
:100BB0008FB7F894EC91111108C0D095DE23DC9327
:100BC0008FBFDF91CF911F910895DE2BF8CFCF9388
:100BD000DF93282F30E0F901E156FF4F8491F901AE
:100BE000E154FF4FD491F901E152FF4FC491CC235E
:100BF000A1F081110E946105EC2FF0E0EE0FFF1FC4
:100C0000E150FF4FA591B491EC91ED2381E090E08C
:100C100009F480E0DF91CF91089580E090E0FACF71
:100C2000FC01918D228D892F90E0805C9F4F821B6B
:100C300091098F7399270895FC01918D828D9817E2
:100C400031F0828DE80FF11D858D90E008958FEFD2
:100C50009FEF0895FC01918D828D981761F0A28D10
:100C6000AE0FBF2FB11D5D968C91928D9F5F9F73CC
:100C7000928F90E008958FEF9FEF0895FC01538DC0
:100C8000448D252F30E0842F90E0821B930B541766
:100C900010F0CF960895019708958EE897E0892B7C
:100CA00049F080E090E0892B29F00E948E078111A5
:100CB0000C9400000895FC01A48DA80FB92FB11D5C
:100CC000A35ABF4F2C91848D90E001968F73992782
:100CD000848FA689B7892C93A089B1898C9180646F
:100CE0008C93938D848D981306C00288F389E02D30
:100CF00080818F7D80830895CF93DF93EC01888D71
:100D00008823B9F0AA89BB89E889F9898C9185FD86
:100D100003C0808186FD0DC00FB607FCF7CF8C9114
:100D200085FFF2CF808185FFEDCFCE010E945B066B
:100D3000E9CFDF91CF910895EF92FF920F931F9328
:100D4000CF93DF93EC0181E0888F9B8D8C8D98137E
:100D500016C0E889F989808185FF11C0EE89FF8975
:100D60006083E889F98980818064808381E090E0F4
:100D7000DF91CF911F910F91FF90EF900895F62E84
:100D80000B8D10E00F5F1F4F0F731127E02E8C8D1E
:100D90008E110CC00FB607FCFACFE889F989808163
:100DA00085FFF5CFCE010E945B06F1CFEB8DEC0FF6
:100DB000FD2FF11DE35AFF4FF0820B8FEA89FB896B
:100DC00080818062D2CFCF92DF92EF92FF921F9309
:100DD000CF93DF93EC016A017B01122F60E874E886
:100DE0008EE190E0A70196010E947E092150310911
:100DF000410951095695479537952795E889F9890D
:100E000082E08083211580E1380798F0E889F9892C
:100E1000108260E472E48FE090E0A70196010E94E6
:100E20007E09215031094109510956954795379559
:100E30002795EC85FD853083EE85FF852083188E10
:100E40001068EC89FD891083EA89FB8980818869B3
:100E50008083EA89FB8980818F7D8083DF91CF91B8
:100E60001F91FF90EF90DF90CF9008951F920F9207
:100E70000FB60F9211242F938F939F93EF93FF93AD
:100E8000E0910102F09102028081E0910702F0916D
:100E9000080282FD1BC0908180910A028F5F8F73D0
:100EA00020910B02821741F0E0910A02F0E0EF502E
:100EB000FE4F958F80930A02FF91EF919F918F9142
:100EC0002F910F900FBE0F901F9018958081F4CF37
:100ED0001F920F920FB60F9211242F933F934F93AF
:100EE0005F936F937F938F939F93AF93BF93EF9392
:100EF000FF9381EF91E00E945B06FF91EF91BF911C
:100F0000AF919F918F917F916F915F914F913F91A1
:100F10002F910F900FBE0F901F90189581EF91E0C9
:100F20000E94100621E0892B09F420E0822F089509
:100F3000E1EFF1E01382128288EE93E0A0E0B0E0EE
:100F400084839583A683B78383EA91E0918380832A
:100F500080E490E09587848729E230E03787268710
:100F60002BE230E0318B208B2AE230E0338B228B76
:100F7000958B848B8CE290E0978B868B118E128EF2
:100F8000138E148E0895AF92BF92CF92DF92EF929C
:100F9000FF920F931F93CF93DF936C017B018B0123
:100FA000040F151FEB015E01AE18BF08C017D10773
:100FB00059F06991D601ED91FC910190F081E02DFD
:100FC000C6010995892B79F7C501DF91CF911F9152
:100FD0000F91FF90EF90DF90CF90BF90AF9008956A
:100FE000FB0101900020E9F73197AF01461B570B39
:100FF000DC01ED91FC910280F381E02D0994EF92E8
:10100000FF920F931F93CF93DF938C017B01D0E06E
:10101000C0E0F701EC0FFD1F6491662361F0D80179
:10102000ED91FC910190F081E02DC8010995892B8B
:1010300011F02196EECFCE01DF91CF911F910F914C
:10104000FF90EF900895DB0114964D915C911597F8
:101050006D917C91DC01ED91FC910280F381E02D9A
:10106000099461EB71E00C94F0070F931F93CF93F9
:10107000DF93EC010E94FF078C01CE010E94310832
:10108000800F911FDF91CF911F910F9108950F93C2
:101090001F93CF93DF93EC010E9423088C01CE01B4
:1010A0000E943108800F911FDF91CF911F910F9106
:1010B0000895FC01808191810C94420ACF93DF93C3
:1010C000EC0188819981009711F00E94420A1982EF
:1010D00018821D821C821B821A82DF91CF91089593
:1010E0000F931F93CF93DF93EC018B016F5F7F4FC3
:1010F000888199810E94CB0A009751F09983888357
:101100001B830A8381E0DF91CF911F910F91089596
:1011100080E0F9CFCF93DF93EC0188819981892B0F
:1011200049F08A819B818617970720F081E0DF9143
:10113000CF910895CE010E9470088823C1F38C815D
:101140009D81892B99F7E881F9811082EFCFEF9289
:10115000FF920F931F93CF93DF93EC017B018A01E2
:10116000BA010E948A0881110BC0CE010E945E085C
:10117000CE01DF91CF911F910F91FF90EF900895D5
:101180001D830C83B701888199810E94910BF0CF58
:10119000FC01118210821382128215821482611561
:1011A000710551F0FB0101900020E9F73197AF0183
:1011B000461B570B0C94A7080895FB0101900020D3
:1011C000E9F73197AF01461B570B0C94A7080F9313
:1011D0001F93CF93DF93CDB7DEB729970FB6F8945F
:1011E000DEBF0FBECDBF8C01862FF80111821082A9
:1011F000138212821582148250E0BE016F5F7F4F0E
:1012000090E00E94980BBE016F5F7F4FC8010E9463
:10121000DD0829960FB6F894DEBF0FBECDBFDF9173
:10122000CF911F910F910895EF92FF920F931F930B
:10123000CF93DF936115710541F480E0DF91CF9189
:101240001F910F91FF90EF90089541155105B1F056
:101250007B01EC010C811D81040F151FB8010E9458
:101260008A08882351F3288139818C819D81B701B7
:10127000820F931F0E94910B1D830C8381E0DECFB0
:10128000CF93DF93EC01FB01448155816081718133
:101290000E941409811103C0CE010E945E08CE0194
:1012A000DF91CF910895CF93DF93EC016115710524
:1012B00039F4CE010E945E08CE01DF91CF910895EE
:1012C000FB0101900020E9F73197AF01461B570B56
:1012D0000E941409882369F3EFCF08950E94450501
:1012E0000E946D090E940D04CDE4D6E00E945803CF
:1012F0002097E1F30E944D06F9CF0895A1E21A2E3E
:10130000AA1BBB1BFD010DC0AA1FBB1FEE1FFF1FA9
:10131000A217B307E407F50720F0A21BB30BE40BF9
:10132000F50B661F771F881F991F1A9469F7609540
:101330007095809590959B01AC01BD01CF010895FA
:10134000EE0FFF1F0590F491E02D09940F931F936A
:10135000CF93DF938230910510F482E090E0E0912A
:101360009002F091910230E020E0B0E0A0E03097F0
:1013700099F42115310509F44AC0281B390B243092
:101380003105D8F58A819B816115710589F1FB01D1
:1013900093838283FE0111C04081518102811381B8
:1013A00048175907E0F04817590799F4109761F06A
:1013B00012960C93129713961C933296CF01DF91DD
:1013C000CF911F910F910895009390021093910275
:1013D000F4CF2115310551F04217530738F0A90118
:1013E000DB019A01BD01DF01F801C1CFEF01F9CFA7
:1013F0009093910280939002CDCFFE01E20FF31FF4
:10140000819391932250310939832883D7CF20913A
:101410008E0230918F02232B41F420916200309193
:10142000630030938F0220938E02209160003091F0
:1014300061002115310541F42DB73EB7409164009C
:1014400050916500241B350BE0918E02F0918F02C4
:10145000E217F307A0F42E1B3F0B2817390778F08B
:10146000AC014E5F5F4F2417350748F04E0F5F1FEA
:1014700050938F0240938E02819391939FCFF0E01F
:10148000E0E09CCFCF93DF930097E9F0FC01329727
:1014900013821282A0919002B0919102ED0130E08E
:1014A00020E01097A1F420813181820F931F2091B9
:1014B0008E0230918F022817390709F061C0F0932E
:1014C0008F02E0938E02DF91CF910895EA01CE174B
:1014D000DF07E8F54A815B819E0141155105B1F7AF
:1014E000E901FB83EA8349915991C40FD51FEC1799
:1014F000FD0761F4808191810296840F951FE901B7
:1015000099838883828193819B838A83F0E0E0E0E2
:1015100012968D919C9113970097B9F52D913C915E
:101520001197CD010296820F931F20918E02309168
:101530008F022817390739F6309751F5109291022A
:1015400010929002B0938F02A0938E02BCCFD383EF
:10155000C28340815181840F951FC817D90761F458
:101560004E5F5F4F88819981480F591F5183408397
:101570008A819B81938382832115310509F0B0CF45
:10158000F0939102E09390029ECFFD01DC01C0CF69
:1015900013821282D7CFB0E0A0E0E1EDFAE00C9424
:1015A000E40B8C01009751F4CB010E94A6098C0139
:1015B000C801CDB7DEB7E0E10C94000CFC01E60FEA
:1015C000F71F9C0122503109E217F30708F49DC070
:1015D000D901CD91DC911197C617D70798F0C53086
:1015E000D10530F3CE0104978617970708F3C61B81
:1015F000D70B2297C193D1936D937C93CF010E9417
:10160000420AD6CF5B01AC1ABD0A4C018C0E9D1E5E
:10161000A0919002B0919102512C412CF12CE12C1F
:10162000109731F580918E0290918F02881599055F
:1016300009F05CC04616570608F058C0809160005B
:1016400090916100009741F48DB79EB7409164007E
:1016500050916500841B950BE817F90708F055C0F9
:10166000F0938F02E0938E02F90171836083A0CF23
:101670008D919C91119712966C90129713967C9075
:101680001397A815B90559F56C0142E0C40ED11C99
:10169000CA14DB0420F1AC014A195B09DA01129685
:1016A000159780F06282738251834083D9016D93D4
:1016B0007C93E114F10471F0D7011396FC93EE933F
:1016C000129776CF22968C0F9D1FF901918380830C
:1016D000F301EFCFF0939102E093900269CF4816A7
:1016E000590608F42C017D01D3019ACFCB010E9449
:1016F000A6097C01009749F0AE01B8010E94880B51
:10170000C8010E94420A870153CF10E000E050CF89
:10171000FB01DC0102C001900D9241505040D8F70E
:101720000895FB01DC0101900D920020E1F708957E
:101730004532510520F4423010F00C94A30BFB010C
:101740001082CB010895BB27FB015527AA27880FDC
:10175000991FAA1FA41710F0A41B83955051B9F725
:10176000A05DAA3308F0A95DA193009779F7B111A4
:10177000B1931192CB010C94BD0BDC01FC01672FDE
:1017800071917723E1F7329704C07C916D93708358
:101790006291AE17BF07C8F30895E199FECF9FBBD2
:1017A0008EBBE09A99278DB30895262FE199FECF3D
:1017B0009FBB8EBB2DBB0FB6F894E29AE19A0FBE89
:1017C000019608952F923F924F925F926F927F926F
:1017D0008F929F92AF92BF92CF92DF92EF92FF9241
:1017E0000F931F93CF93DF93CDB7DEB7CA1BDB0BED
:1017F0000FB6F894DEBF0FBECDBF09942A88398892
:1018000048885F846E847D848C849B84AA84B98498
:10181000C884DF80EE80FD800C811B81AA81B981A4
:10182000CE0FD11D0FB6F894DEBF0FBECDBFED01B8
:061830000895F894FFCFBB
:1018360000009202800050726573736564206B65C8
:10184600792028002900FF0A0B0C0D0E0F1011122B
:1018560013141516171F1E1D1C1B1A19180001023A
:101866000301020304050E0F1011121314151617A7
:1018760018060708090A0B0C0D00071801060E02C8
:10188600070E03080F040C0E050710060A10070DB5
:101896000F080D11090C120A0D120B0C130C0D1367
:1018A6000D0C140E090F0F0C15100C1711010D124B
:1018B6000B0E130A0E140B0F150A0F160B10170B2F
:1018C60011180A12190B121A0A131B0B131C0D14EA
:1018D6001D0B151E0D171F010B200D1521060F22BE
:1018E6000D10230610240A112506112606122709B3
:1018F60012280613290B142A0A152B0B172C0B1664
:101906002D010A2E090E2F07113009173108103242
:101916000911330812340813350915360A14370627
:1019260015380A173906143A050B3B080E3C0D0EFE
:101936003D07153E08113F0712400713410914429F
:10194600081443081544091345050846040C4701C5
:101956000648030D4902074A07144B02094C0109C0
:101966004D04064E06174F070F500C185108180065
:101976000000009C06C3073E067C0610062A061CCD
:04198600060D0A0040
:00000001FF
