:100000000C947B000C94A3000C94A3000C94A3000C
:100010000C94A3000C94A3000C94A3000C94A300D4
:100020000C94A3000C94A3000C94A3000C946D01F9
:100030000C94A3000C9407040C9439040C94A300B2
:100040000C94A3000C94A3000C94A3000C94A300A4
:100050000C94A300556E696B6579626F61726420C0
:100060006D6174726978206578706C6F726572204A
:1000700076312E3000000000020000000000000079
:100080000005040007000000000000000000000060
:10009000000000000001020408102040800102045A
:1000A0000810204080010204081020408001020452
:1000B000081020408002020202020202020404042C
:1000C0000404040404030303030303030301010101
:1000D0000101010101000039003600330030000049
:1000E000003B0038003500320000003A0037003491
:1000F00000310000690411241FBECFE5D8E0DEBF47
:10010000CDBF10E0A0E6B0E0E2ECF1E102C0059066
:100110000D92A83AB107D9F721E0A8EAB0E001C0F2
:100120001D92A235B207E1F710E0CBE7D0E004C0A2
:100130002197FE010E947006CA37D107C9F70E94B5
:100140003E060C94DF080C940000AF92BF92CF9251
:10015000DF92EF92FF920F931F93CF93DF93CDB770
:10016000DEB762970FB6F894DEBF0FBECDBF29E7AA
:10017000C22E20E0D22E10E033E9A32E30E0B32EC1
:1001800099E7E92E90E0F92E62E0F70181917F0175
:100190000E944E02AE14BF04B9F7F60101916F013F
:1001A00061E0802F0E944E0260E0802F0E948A0250
:1001B00089E7E82E80E0F82E00E0101709F450C01F
:1001C000F70180810E94B802892B09F049C0612F94
:1001D000101708F4602F70E06F5F7F4F4AE0CE0188
:1001E00001960E94B805612F011708F4602F70E096
:1001F0006F5F7F4F4AE0CE010D960E94B80566E61C
:1002000070E0CE0107960E949905BE01635F7F4FA3
:10021000CE0107960E94100664E770E00E94230654
:10022000BE016F5F7F4F0E94100667E770E00E947B
:100230002306BC0181EB90E00E941805CE010796D1
:100240000E942A05CE010D960E942A05CE01019634
:100250000E942A056CE271E080E090E00E94DD01DE
:100260000F5FFFEFEF1AFF0A0A3109F0A6CF1F5FF9
:100270001A3109F085CF62960FB6F894DEBF0FBE33
:10028000CDBFDF91CF911F910F91FF90EF90DF9045
:10029000CF90BF90AF900895CF93DF93C9E7D0E0A0
:1002A00062E089910E944E0280E0C339D807C1F70D
:1002B00026E040E052EC61E070E081EB90E00E94CB
:1002C000B40381EB90E00E944D0364E570E081EBA4
:1002D00090E0DF91CF910C9406051F920F920FB61C
:1002E0000F9211242F933F938F939F93AF93BF93BC
:1002F0008091A9009091AA00A091AB00B091AC00B0
:100300003091A80026E0230F2D3758F50296A11D45
:10031000B11D2093A8008093A9009093AA00A093F8
:10032000AB00B093AC008091AD009091AE00A09175
:10033000AF00B091B0000196A11DB11D8093AD003A
:100340009093AE00A093AF00B093B000BF91AF9177
:100350009F918F913F912F910F900FBE0F901F9003
:10036000189529E8230F0396A11DB11DD2CF3FB7E1
:10037000F8948091AD009091AE00A091AF00B09143
:10038000B00022B708B600FE05C02F3F19F0019655
:10039000A11DB11D3FBFBA2FA92F982F8827BC01DF
:1003A000CD01620F711D811D911D43E0660F771F06
:1003B000881F991F4A95D1F708958F929F92AF9207
:1003C000BF92CF92DF92EF92FF926B017C010E946D
:1003D000B7014B015C01C114D104E104F104E9F05F
:1003E0000E944D060E94B701681979098A099B0984
:1003F000683E73408105910570F321E0C21AD1086F
:10040000E108F10888EE880E83E0981EA11CB11C5B
:10041000C114D104E104F10429F7FF90EF90DF90BB
:10042000CF90BF90AF909F908F900895789483B7AE
:10043000836083BF83B7886483BF89B7816089BFC6
:1004400082E08EBD8EB581608EBD8FB581608FBD1F
:1004500085B5846085BD85B5806485BD86E886B92F
:100460001AB80895843059F028F4813099F0823018
:1004700089F00895853039F0873041F008958FB5BF
:100480008F778FBD08958FB58F7DFBCF85B58F7D1D
:1004900085BD089583B78F7D83BF0895CF93DF9384
:1004A00090E0FC01EB56FF4F24918B549F4FFC01D1
:1004B00084918823C9F090E0880F991FFC01E751CF
:1004C000FF4FA591B491FC01E152FF4FC591D4912A
:1004D00061110DC09FB7F8948C91209582238C9365
:1004E0008881282328839FBFDF91CF9108956230B0
:1004F00051F49FB7F8943C91822F809583238C937D
:10050000E8812E2BEFCF8FB7F894EC912E2B2C9304
:100510008FBFEACF1F93CF93DF93282F30E0F901ED
:10052000EB58FF4F8491F901EB56FF4FD491F9013D
:10053000EB54FF4FC491CC23A9F0162F81110E94D8
:100540003202EC2FF0E0EE0FFF1FE152FF4FA591BA
:10055000B4918FB7F894EC91111108C0D095DE23B7
:10056000DC938FBFDF91CF911F910895DE2BF8CFE1
:10057000CF93DF93282F30E0F901EB58FF4F8491A0
:10058000F901EB56FF4FD491F901EB54FF4FC491A1
:10059000CC23A1F081110E943202EC2FF0E0EE0F8B
:1005A000FF1FEB52FF4FA591B491EC91ED2381E039
:1005B00090E009F480E0DF91CF91089580E090E031
:1005C000FACFFC01918D228D892F90E0805C9F4FA6
:1005D000821B91098F7399270895FC01918D828D5B
:1005E000981731F0828DE80FF11D858D90E0089508
:1005F0008FEF9FEF0895FC01918D828D981761F028
:10060000A28DAE0FBF2FB11D5D968C91928D9F5F15
:100610009F73928F90E008958FEF9FEF0895FC01F4
:10062000538D448D252F30E0842F90E0821B930B57
:10063000541710F0CF960895019708958FE594E030
:10064000892B49F080E090E0892B29F00E945F041B
:1006500081110C9400000895FC01A48DA80FB92FFE
:10066000B11DA35ABF4F2C91848D90E001968F73DA
:100670009927848FA689B7892C93A089B1898C91F9
:1006800080648C93938D848D981306C00288F389BF
:10069000E02D80818F7D80830895CF93DF93EC01DF
:1006A000888D8823B9F0AA89BB89E889F9898C915A
:1006B00085FD03C0808186FD0DC00FB607FCF7CF16
:1006C0008C9185FFF2CF808185FFEDCFCE010E9416
:1006D0002C03E9CFDF91CF910895EF92FF920F9312
:1006E0001F93CF93DF93EC0181E0888F9B8D8C8DDE
:1006F000981316C0E889F989808185FF11C0EE89B9
:10070000FF896083E889F98980818064808381E042
:1007100090E0DF91CF911F910F91FF90EF9008959E
:10072000F62E0B8D10E00F5F1F4F0F731127E02E79
:100730008C8D8E110CC00FB607FCFACFE889F989B1
:10074000808185FFF5CFCE010E942C03F1CFEB8D88
:10075000EC0FFD2FF11DE35AFF4FF0820B8FEA895A
:10076000FB8980818062D2CFCF92DF92EF92FF929D
:100770001F93CF93DF93EC016A017B01122F60E896
:1007800074E88EE190E0A70196010E944E06215088
:100790003109410951095695479537952795E889BB
:1007A000F98982E08083211580E1380798F0E88993
:1007B000F989108260E472E48FE090E0A70196016D
:1007C0000E944E062150310941095109569547951D
:1007D00037952795EC85FD853083EE85FF85208351
:1007E000188E1068EC89FD891083EA89FB89808165
:1007F00088698083EA89FB8980818F7D8083DF918E
:10080000CF911F91FF90EF90DF90CF9008951F92AE
:100810000F920FB60F9211242F938F939F93EF9304
:10082000FF93E091C100F091C2008081E091C70088
:10083000F091C80082FD1BC090818091CA008F5F3B
:100840008F732091CB00821741F0E091CA00F0E055
:10085000EF54FF4F958F8093CA00FF91EF919F91C6
:100860008F912F910F900FBE0F901F901895808140
:10087000F4CF1F920F920FB60F9211242F933F9334
:100880004F935F936F937F938F939F93AF93BF9398
:10089000EF93FF9381EB90E00E942C03FF91EF9187
:1008A000BF91AF919F918F917F916F915F914F9188
:1008B0003F912F910F900FBE0F901F90189581EBD5
:1008C00090E00E94E10221E0892B09F420E0822FD0
:1008D0000895E1EBF0E01382128288EE93E0A0E04D
:1008E000B0E084839583A683B78387E990E0918302
:1008F000808380E490E09587848729E230E0378721
:1009000026872BE230E0318B208B2AE230E0338BDC
:10091000228B958B848B8CE290E0978B868B118E4B
:10092000128E138E148E0895AF92BF92CF92DF92E3
:10093000EF92FF920F931F93CF93DF936C017B0194
:100940008B01040F151FEB015E01AE18BF08C01725
:10095000D10759F06991D601ED91FC910190F08198
:10096000E02DC6010995892B79F7C501DF91CF915B
:100970001F910F91FF90EF90DF90CF90BF90AF90BD
:100980000895FB0101900020E9F73197AF01461B64
:10099000570BDC01ED91FC910280F381E02D09946D
:1009A000EF92FF920F931F93CF93DF938C017B0104
:1009B000D0E0C0E0F701EC0FFD1F6491662361F009
:1009C000D801ED91FC910190F081E02DC8010995CD
:1009D000892B11F02196EECFCE01DF91CF911F919F
:1009E0000F91FF90EF900895DB0114964D915C916B
:1009F00015976D917C91DC01ED91FC910280F38162
:100A0000E02D099465EA70E00C94C1040F931F93E4
:100A1000CF93DF93EC010E94D0048C01CE010E94A1
:100A20000205800F911FDF91CF911F910F910895C3
:100A30000F931F93CF93DF93EC010E94F4048C017A
:100A4000CE010E940205800F911FDF91CF911F916F
:100A50000F910895FC01808191810C941207CF932E
:100A6000DF93EC0188819981009711F00E941207B1
:100A7000198218821D821C821B821A82DF91CF91FB
:100A800008950F931F93CF93DF93EC018B016F5F5A
:100A90007F4F888199810E949B07009751F099832D
:100AA00088831B830A8381E0DF91CF911F910F918F
:100AB000089580E0F9CFCF93DF93EC01888199818D
:100AC000892B49F08A819B818617970720F081E066
:100AD000DF91CF910895CE010E9441058823C1F393
:100AE0008C819D81892B99F7E881F9811082EFCF64
:100AF000EF92FF920F931F93CF93DF93EC017B0153
:100B00008A01BA010E945B0581110BC0CE010E94CF
:100B10002F05CE01DF91CF911F910F91FF90EF90A4
:100B200008951D830C83B701888199810E94610813
:100B3000F0CFFC011182108213821282158214827E
:100B40006115710551F0FB0101900020E9F7319723
:100B5000AF01461B570B0C9478050895FB010190DB
:100B60000020E9F73197AF01461B570B0C9478052D
:100B70000F931F93CF93DF93CDB7DEB762970FB676
:100B8000F894DEBF0FBECDBF8C01CB01F8011182FE
:100B90001082138212821582148250E0BE016F5FB0
:100BA0007F4F0E946808BE016F5F7F4FC8010E949F
:100BB000AE0562960FB6F894DEBF0FBECDBFDF91D3
:100BC000CF911F910F910895EF92FF920F931F9372
:100BD000CF93DF936115710541F480E0DF91CF91F0
:100BE0001F910F91FF90EF90089541155105B1F0BD
:100BF0007B01EC010C811D81040F151FB8010E94BF
:100C00005B05882351F3288139818C819D81B7014F
:100C1000820F931F0E9461081D830C8381E0DECF49
:100C2000CF93DF93EC01FB01448155816081718199
:100C30000E94E405811103C0CE010E942F05CE0160
:100C4000DF91CF910895CF93DF93EC01611571058A
:100C500039F4CE010E942F05CE01DF91CF91089586
:100C6000FB0101900020E9F73197AF01461B570BBC
:100C70000E94E405882369F3EFCF08950E941602CD
:100C80000E943D060E944C01CEE1D3E00E94A500E7
:100C90002097E1F30E941E03F9CF0895A1E21A2ED6
:100CA000AA1BBB1BFD010DC0AA1FBB1FEE1FFF1F10
:100CB000A217B307E407F50720F0A21BB30BE40B60
:100CC000F50B661F771F881F991F1A9469F76095A7
:100CD0007095809590959B01AC01BD01CF01089561
:100CE000EE0FFF1F0590F491E02D09940F931F93D1
:100CF000CF93DF938230910510F482E090E0E09191
:100D00005001F091510130E020E0B0E0A0E03097D8
:100D100099F42115310509F44AC0281B390B2430F8
:100D20003105D8F58A819B816115710589F1FB0137
:100D300093838283FE0111C040815181028113811E
:100D400048175907E0F04817590799F4109761F0D0
:100D500012960C93129713961C933296CF01DF9143
:100D6000CF911F910F91089500935001109351015D
:100D7000F4CF2115310551F04217530738F0A9017E
:100D8000DB019A01BD01DF01F801C1CFEF01F9CF0D
:100D90009093510180935001CDCFFE01E20FF31FDC
:100DA000819391932250310939832883D7CF2091A1
:100DB0004E0130914F01232B41F42091620030917C
:100DC000630030934F0120934E01209160003091D9
:100DD00061002115310541F42DB73EB74091640003
:100DE00050916500241B350BE0914E01F0914F01AD
:100DF000E217F307A0F42E1B3F0B2817390778F0F2
:100E0000AC014E5F5F4F2417350748F04E0F5F1F50
:100E100050934F0140934E01819391939FCFF0E007
:100E2000E0E09CCFCF93DF930097E9F0FC0132978D
:100E300013821282A0915001B0915101ED0130E076
:100E400020E01097A1F420813181820F931F20911F
:100E50004E0130914F012817390709F061C0F09316
:100E60004F01E0934E01DF91CF910895EA01CE1733
:100E7000DF07E8F54A815B819E0141155105B1F715
:100E8000E901FB83EA8349915991C40FD51FEC17FF
:100E9000FD0761F4808191810296840F951FE9011D
:100EA00099838883828193819B838A83F0E0E0E049
:100EB00012968D919C9113970097B9F52D913C91C5
:100EC0001197CD010296820F931F20914E01309110
:100ED0004F012817390739F6309751F51092510113
:100EE00010925001B0934F01A0934E01BCCFD38319
:100EF000C28340815181840F951FC817D90761F4BF
:100F00004E5F5F4F88819981480F591F51834083FD
:100F10008A819B81938382832115310509F0B0CFAB
:100F2000F0935101E09350019ECFFD01DC01C0CF51
:100F300013821282D7CFB0E0A0E0E1EAF7E00C9490
:100F4000AA088C01009751F4CB010E9476068C010F
:100F5000C801CDB7DEB7E0E10C94C608FC01E60F8E
:100F6000F71F9C0122503109E217F30708F49DC0D6
:100F7000D901CD91DC911197C617D70798F0C530EC
:100F8000D10530F3CE0104978617970708F3C61BE7
:100F9000D70B2297C193D1936D937C93CF010E947D
:100FA0001207D6CF5B01AC1ABD0A4C018C0E9D1EF8
:100FB000A0915001B0915101512C412CF12CE12C08
:100FC000109731F580914E0190914F018815990548
:100FD00009F05CC04616570608F058C080916000C2
:100FE00090916100009741F48DB79EB740916400E5
:100FF00050916500841B950BE817F90708F055C060
:10100000F0934F01E0934E01F90171836083A0CF0B
:101010008D919C91119712966C90129713967C90DB
:101020001397A815B90559F56C0142E0C40ED11CFF
:10103000CA14DB0420F1AC014A195B09DA011296EB
:10104000159780F06282738251834083D9016D933A
:101050007C93E114F10471F0D7011396FC93EE93A5
:10106000129776CF22968C0F9D1FF9019183808372
:10107000F301EFCFF0935101E093500169CF48168F
:10108000590608F42C017D01D3019ACFCB010E94AF
:1010900076067C01009749F0AE01B8010E9458081D
:1010A000C8010E941207870153CF10E000E050CF23
:1010B000FB01DC0102C001900D9241505040D8F775
:1010C0000895FB01DC0101900D920020E1F70895E5
:1010D0004532510520F4423010F00C947308FB01A6
:1010E0001082CB010895BB274A3031F4992322F4B2
:1010F000BDE2909581959F4F0C947F08BB27FB0123
:101100005527AA27880F991FAA1FA41710F0A41B00
:1011100083955051B9F7A05DAA3308F0A95DA1935A
:10112000009779F7B111B1931192CB010C94980803
:10113000DC01FC01672F71917723E1F7329704C03E
:101140007C916D9370836291AE17BF07C8F30895C9
:101150002F923F924F925F926F927F928F929F92C7
:10116000AF92BF92CF92DF92EF92FF920F931F93B5
:10117000CF93DF93CDB7DEB7CA1BDB0B0FB6F89466
:10118000DEBF0FBECDBF09942A88398848885F84A6
:101190006E847D848C849B84AA84B984C884DF8017
:1011A000EE80FD800C811B81AA81B981CE0FD11DFB
:1011B0000FB6F894DEBF0FBECDBFED010895F894D1
:0211C000FFCF5F
:1011C20000005201800050726573736564206B6584
:1011D200792028002C200029000A0B0C0D0E0F107C
:1011E200111213141516171F1E1D1C1B1A19180095
:1011F200010203000000006D0394040F034D03E19C
:0812020002FB02ED020D0A00DF
:00000001FF
